:020000040800F2
:1000000000000120D91700082D1700083517000837
:100010003D170008451700084D17000800000000B4
:10002000000000000000000000000000551700085C
:100030006317000800000000711700087F17000810
:10004000291800082918000829180008291800088C
:10005000291800082918000829180008291800087C
:10006000291800082918000829180008291800086C
:10007000291800082918000829180008291800085C
:10008000291800082918000829180008291800084C
:10009000291800082918000829180008291800083C
:1000A000291800082918000829180008291800082C
:1000B0008D170008291800082918000829180008B9
:1000C000291800082918000829180008291800080C
:1000D0002918000829180008A11700082918000885
:1000E00029180008291800082918000829180008EC
:1000F00029180008291800082918000829180008DC
:10010000291800080000000000000000291800085D
:1001100029180008291800082918000829180008BB
:1001200029180008291800082918000829180008AB
:10013000291800082918000800000000000000002D
:1001400029180008291800082918000800000000D4
:10015000000000000000000000000000000000009F
:10016000291800082918000829180008291800086B
:10017000291800082918000829180008291800085B
:1001800029180008291800080000000000000000DD
:040190002918000822
:1001980010B5054C237833B9044B13B10448AFF3B9
:1001A80000800123237010BD6000002000000000C3
:1001B800F462000808B5034B1BB103490348AFF3C9
:1001C800008008BD0000000064000020F462000800
:1001D80081F0004102E000BF83F0004330B54FEAF0
:1001E80041044FEA430594EA050F08BF90EA020F5D
:1001F8001FBF54EA000C55EA020C7FEA645C7FEAF0
:10020800655C00F0E2804FEA5454D4EB5555B8BF12
:100218006D420CDD2C4480EA020281EA030382EA83
:10022800000083EA010180EA020281EA0303362D15
:1002380088BF30BD11F0004F4FEA01314FF4801CE8
:100248004CEA113102D0404261EB410113F0004FFA
:100258004FEA03334CEA133302D0524263EB4303B1
:1002680094EA050F00F0A780A4F10104D5F1200E4F
:100278000DDB02FA0EFC22FA05F2801841F10001AA
:1002880003FA0EF2801843FA05F359410EE0A5F17E
:1002980020050EF1200E012A03FA0EFC28BF4CF0AF
:1002A800020C43FA05F3C01851EBE37101F0004565
:1002B80007D54FF0000EDCF1000C7EEB00006EEB72
:1002C8000101B1F5801F1BD3B1F5001F0CD34908FC
:1002D8005FEA30004FEA3C0C04F101044FEA445253
:1002E80012F5800F80F09A80BCF1004F08BF5FEADA
:1002F800500C50F1000041EB045141EA050130BDBA
:100308005FEA4C0C404141EB0101013C28BFB1F5CB
:10031800801FE9D291F0000F04BF01460020B1FA16
:1003280081F308BF2033A3F10B03B3F120020CDAE9
:100338000C3208DD02F1140CC2F10C0201FA0CF0C7
:1003480021FA02F10CE002F11402D8BFC2F1200C2C
:1003580001FA02F120FA0CFCDCBF41EA0C019040E2
:10036800E41AA2BF01EB0451294330BD6FEA04042B
:100378001F3C1CDA0C340EDC04F11404C4F1200216
:1003880020FA04F001FA02F340EA030021FA04F328
:1003980045EA030130BDC4F10C04C4F1200220FA7F
:1003A80002F001FA04F340EA0300294630BD21FABD
:1003B80004F0294630BD94F0000F83F4801306BF83
:1003C80081F480110134013D4EE77FEA645C18BF77
:1003D8007FEA655C29D094EA050F08BF90EA020F0E
:1003E80005D054EA000C04BF1946104630BD91EA06
:1003F800030F1EBF0021002030BD5FEA545C05D109
:100408004000494128BF41F0004130BD14F5800447
:100418003CBF01F5801130BD01F0004545F0FE41BB
:1004280041F470014FF0000030BD7FEA645C1ABFF0
:10043800194610467FEA655C1CBF0B46024650EA27
:10044800013406BF52EA033591EA030F41F4002153
:1004580030BD00BF90F0000F04BF0021704730B5D9
:100468004FF4806404F132044FF000054FF00001AE
:1004780050E700BF90F0000F04BF0021704730B56F
:100488004FF4806404F1320410F0004548BF404244
:100498004FF000013EE700BF42004FEAE2014FEA99
:1004A80031014FEA02701FBF12F07F4393F07F4F74
:1004B80081F06051704732F07F4208BF704793F077
:1004C8007F4F04BF41F40021704730B54FF460748A
:1004D80001F0004521F000411CE700BF50EA01028D
:1004E80008BF704730B54FF000050AE050EA010236
:1004F80008BF704730B511F0004502D5404261EBA6
:1005080041014FF4806404F132045FEA915C3FF4E6
:10051800D8AE4FF003025FEADC0C18BF03325FEA83
:10052800DC0C18BF033202EBDC02C2F1200300FA34
:1005380003FC20FA02F001FA03FE40EA0E0021FA59
:1005480002F11444BDE600BF70B54FF0FF0C4CF447
:10055800E06C1CEA11541DBF1CEA135594EA0C0FF9
:1005680095EA0C0F00F0DEF82C4481EA030621EA34
:100578004C5123EA4C5350EA013518BF52EA03356F
:1005880041F4801143F4801338D0A0FB02CE4FF021
:100598000005E1FB02E506F00042E0FB03E54FF051
:1005A8000006E1FB03569CF0000F18BF4EF0010E49
:1005B800A4F1FF04B6F5007F64F5407404D25FEA45
:1005C8004E0E6D4146EB060642EAC62141EA5551F8
:1005D8004FEAC52040EA5E504FEACE2EB4F1FD0C3A
:1005E80088BFBCF5E06F1ED8BEF1004F08BF5FEAB8
:1005F800500E50F1000041EB045170BD06F000466A
:1006080046EA010140EA020081EA0301B4EB5C0416
:10061800C2BFD4EB0C0541EA045170BD41F480110E
:100628004FF0000E013C00F3AB8014F1360FDEBF33
:10063800002001F0004170BDC4F10004203C35DA0F
:100648000C341BDC04F11404C4F1200500FA05F392
:1006580020FA04F001FA05F240EA020001F0004233
:1006680021F0004110EBD37021FA04F642EB0601A9
:100678005EEA430E08BF20EAD37070BDC4F10C04D3
:10068800C4F1200500FA04F320FA05F001FA04F297
:1006980040EA020001F0004110EBD37041F1000183
:1006A8005EEA430E08BF20EAD37070BDC4F120058E
:1006B80000FA05F24EEA020E20FA04F301FA05F2F6
:1006C80043EA020321FA04F001F0004121FA04F29E
:1006D80020EA020000EBD3705EEA430E08BF20EA6E
:1006E800D37070BD94F0000F0FD101F000464000A8
:1006F80041EB010111F4801F08BF013CF7D041EA2A
:10070800060195F0000F18BF704703F0004652002D
:1007180043EB030313F4801F08BF013DF7D043EAFE
:100728000603704794EA0C0F0CEA135518BF95EAB4
:100738000C0F0CD050EA410618BF52EA4306D1D13B
:1007480081EA030101F000414FF0000070BD50EA5A
:10075800410606BF1046194652EA430619D094EAE4
:100768000C0F02D150EA013613D195EA0C0F05D1CE
:1007780052EA03361CBF104619460AD181EA030122
:1007880001F0004141F0FE4141F470014FF00000DA
:1007980070BD41F0FE4141F4780170BD70B54FF075
:1007A800FF0C4CF4E06C1CEA11541DBF1CEA1355F5
:1007B80094EA0C0F95EA0C0F00F0A7F8A4EB0504D7
:1007C80081EA030E52EA03354FEA013100F08880CE
:1007D8004FEA03334FF0805545EA131343EA126397
:1007E8004FEA022245EA111545EA10654FEA00264C
:1007F8000EF000419D4208BF964244F1FD0404F505
:10080800407402D25B084FEA3202B61A65EB030560
:100818005B084FEA32024FF480104FF4002CB6EB1D
:10082800020E75EB030E22BFB61A754640EA0C009D
:100838005B084FEA3202B6EB020E75EB030E22BFDD
:10084800B61A754640EA5C005B084FEA3202B6EB1E
:10085800020E75EB030E22BFB61A754640EA9C00DD
:100868005B084FEA3202B6EB020E75EB030E22BFAD
:10087800B61A754640EADC0055EA060E18D04FEA6B
:10088800051545EA16754FEA06164FEAC30343EA0B
:1008980052734FEAC2025FEA1C1CC0D111F4801FD8
:1008A8000BD141EA00014FF000004FF0004CB6E7D1
:1008B80011F4801F04BF01430020B4F1FD0C88BF70
:1008C800BCF5E06F3FF6AFAEB5EB030C04BFB6EB7B
:1008D800020C5FEA500C50F1000041EB045170BD6E
:1008E8000EF0004E4EEA113114EB5C04C2BFD4EB9B
:1008F8000C0541EA045170BD41F480114FF0000E1F
:10090800013C90E645EA060E8DE60CEA135594EA9A
:100918000C0F08BF95EA0C0F3FF43BAF94EA0C0F9D
:100928000AD150EA01347FF434AF95EA0C0F7FF412
:1009380025AF104619462CE795EA0C0F06D152EA66
:1009480003353FF4FDAE1046194622E750EA41064A
:1009580018BF52EA43067FF4C5AE50EA41047FF45B
:100968000DAF52EA43057FF4EBAE12E74A0011D20D
:1009780012F5001211D20DD56FF47873B3EB6252F1
:100988000ED44FEAC12343F0004343EA505323FAFD
:1009980002F070474FF00000704750EA013002D172
:1009A8004FF0FF3070474FF0000070474FEA4102A8
:1009B800B2F1E04324BFB3F5001CDCF1FE5C0DD9B5
:1009C80001F0004C4FEAC0024CEA5070B2F1004FFF
:1009D80040EB830008BF20F00100704711F0804F02
:1009E80021D113F13872BCBF01F00040704741F4C7
:1009F80080114FEA5252C2F11802C2F1200C10FACB
:100A08000CF320FA02F018BF40F001004FEAC123AE
:100A18004FEAD32303FA0CFC40EA0C0023FA02F352
:100A28004FEA4303CCE77FEA625307D150EA013328
:100A38001EBF4FF0FE4040F44000704701F00040F8
:100A480040F0FE4040F40000704700BF80B400AFA3
:100A5800BFF34F8F00BF064BDB6803F4E062044925
:100A6800044B1343CB60BFF34F8F00BF00BFFDE7BC
:100A780000ED00E00400FA0580B584B000AF164A26
:100A88003B1D07CA83E807000023FB7014E0391DEB
:100A98004FF0FF330B22114804F02AF8F91C4FF4E9
:100AA8007A7301220D4804F0ACF8FB78532B03D07D
:100AB8004FF47A7000F01CFFFB78532BE7D1012329
:100AC800BB70B91C4FF0FF330122044804F010F842
:100AD80000BF1037BD4680BD0C6300088C010020A4
:100AE80080B500AF00F09EFE00F028F800F0CAF9CB
:100AF80000F098F900F086F800F0F8F800F0B8F87F
:100B080000F042F90021094801F06EF81021074869
:100B180001F06AF8FFF7B0FF054803F049FB01222E
:100B28000449054804F036F900BFFDE77C000020C1
:100B3800F4000020140200208C01002080B5A6B02B
:100B480000AF07F1700328220021184605F09CFB2E
:100B580007F15C0300221A605A609A60DA601A6131
:100B68003B1D58220021184605F08EFB02233B67E7
:100B78000123FB671023C7F880300223C7F88830A9
:100B88004FF40043C7F88C304FF4E013C7F89030A7
:100B98000023C7F8943007F17003184601F0DAFA19
:100BA8000346002B01D000F08FFC0F23FB650223C6
:100BB8003B6600237B664FF48063BB660023FB66BD
:100BC80007F15C030121184602F0E8FA0346002BFE
:100BD80001D000F079FC0A4B7B6000233B610023C5
:100BE800FB6300233B643B1D184602F0E9FC034607
:100BF800002B01D000F068FC00BF9837BD4680BDCF
:100C08000200300080B584B000AF3B1D00221A609E
:100C18005A609A60144B154A1A60134800F09DFFF9
:100C28000346002B01D000F04FFC00237B6000231B
:100C3800BB603B1D002219460B4801F020F8034613
:100C4800002B01D000F040FC3B1D1022194606483D
:100C580001F015F80346002B01D000F035FC00BF69
:100C68001037BD4680BD00BF7C00002000740040E6
:100C780080B500AF1B4B1C4A1A601A4B4FF48272A6
:100C88005A60184B00229A60164B4FF4E062DA6003
:100C9800144B00221A61134B00225A61114B4FF476
:100CA80000729A610F4B2022DA610E4B00221A6201
:100CB8000C4B00225A620B4B00229A62094B072206
:100CC800DA62084B00221A63064B08225A63054869
:100CD80002F092FE0346002B01D000F0F5FB00BFA6
:100CE80080BD00BF900000200038004080B588B06B
:100CF80000AF07F1100300221A605A609A60DA60A8
:100D08003B1D00221A605A609A601E4B4FF08042C9
:100D18001A601C4B00225A601A4B00229A60194B29
:100D280042F6DF62DA60174B00221A61154B802207
:100D38009A61144803F0E4F90346002B01D000F04F
:100D4800C3FB4FF480533B6107F1100319460D486C
:100D580003F0A0FB0346002B01D000F0B5FB0023F5
:100D68007B600023FB603B1D1946064803F0C8FD65
:100D78000346002B01D000F0A7FB00BF2037BD467B
:100D880080BD00BFF400002080B588B000AF07F137
:100D9800100300221A605A609A60DA603B1D002234
:100DA8001A605A609A601D4B1D4A1A601B4B00223C
:100DB8005A601A4B00229A60184B42F6DF62DA60DA
:100DC800164B00221A61154B80229A61134803F0D2
:100DD80097F90346002B01D000F076FB4FF48053BF
:100DE8003B6107F1100319460C4803F053FB034617
:100DF800002B01D000F068FB00237B600023FB6020
:100E08003B1D1946054803F07BFD0346002B01D026
:100E180000F05AFB00BF2037BD4680BD40010020CE
:100E28000004004080B500AF144B154A1A60134BFC
:100E38004FF4E1325A60114B00229A600F4B0022A6
:100E4800DA600E4B00221A610C4B0C225A610B4BD4
:100E580000229A61094B0022DA61084B00221A62CB
:100E6800064B00225A62054803F0F4FD0346002BA6
:100E780001D000F029FB00BF80BD00BF8C0100201D
:100E88000044004080B58AB000AF07F11403002287
:100E98001A605A609A60DA601A61364B5B69354AA3
:100EA80043F400235361334B5B6903F400233B6134
:100EB8003B69304B5B692F4A43F4800353612D4BE8
:100EC8005B6903F48003FB60FB682A4B5B69294A72
:100ED80043F400335361274B5B6903F40033BB6071
:100EE800BB68244B5B69234A43F480235361214B3D
:100EF8005B6903F480237B607B68002201211E4824
:100F080001F010F900224FF480614FF0904001F099
:100F180009F94FF400537B614FF40413BB610023BC
:100F2800FB6107F114031946144800F071FF01230F
:100F38007B610123BB610023FB6100233B6207F156
:100F4800140319460C4800F063FF4FF480637B617B
:100F58000123BB610023FB6100233B6207F11403FB
:100F680019464FF0904000F053FF00BF2837BD46A8
:100F780080BD00BF0010024000040048000800487F
:100F880080B483B000AF0F4B1B881A460E4B33F862
:100F98001230FB800B4B1B8801330C4A82FB031277
:100FA8009111DA178A1AC82101FB02F29A1A92B231
:100FB800044B1A80FB8818460C37BD465DF8047B45
:100FC800704700BF24020020346300081F85EB51DE
:100FD80080B483B000AF0F4B1B781A460E4B33F822
:100FE8001230FB800B4B1B7801330C4A82FB031237
:100FF8009111DA178A1AC82101FB02F29A1AD2B2A1
:10100800044B1A70FB8818460C37BD465DF8047B04
:10101800704700BF26020020C46400081F85EB51FA
:1010280080B483B000AF1E4B1B781A461D4B33F8B3
:101038001230FB801C4B93F90030012B14D1184B54
:101048001B78C62B09D1184BFF221A70144B1B783A
:10105800023BDAB2124B1A701AE0114B1B780233BA
:10106800DAB20F4B1A7013E00D4B1B78012B09D81D
:101078000D4B01221A700A4B1B780233DAB2084B67
:101088001A7005E0064B1B78023BDAB2044B1A7063
:10109800FB8818460C37BD465DF8047B704700BFD7
:1010A80027020020C46400080000002080B483B038
:1010B80000AF104B1B78632B02D840F6D84300E0F2
:1010C8000023FB800B4B1B7801330B4A82FB031276
:1010D8009111DA178A1AC82101FB02F29A1AD2B2C0
:1010E800044B1A70FB8818460C37BD465DF8047B24
:1010F800704700BF280200201F85EB5180B584B0DF
:1011080000AF78601B4B1B78DBB2032B1ED801A203
:1011180052F823F02D11000837110008411100087A
:101128004B110008FFF72CFF0346FB8111E0FFF786
:10113800BDFF0346FB810CE0FFF74AFF0346FB8136
:1011480007E0FFF76DFF0346FB8102E00023FB8108
:1011580000BFFB8900220021074800F020FDFB8921
:10116800193300221021044800F019FD00BF103780
:10117800BD4680BD230200207C00002080B584B0DD
:1011880000AF78607B681B78542B06D0542B63DC47
:10119800412B2BD0462B0AD05EE07B6802331846E1
:1011A80004F0EAFF0346DAB2334B1A705FE07B685B
:1011B8000233184604F0E0FF0346FB81FA892F4BFF
:1011C8001B682F49B1FBF2F2DA62FB892C4AB2FBA9
:1011D800F3F32A4AD3600123BB7207F10A014FF0E7
:1011E800FF330122274803F083FC40E07B68023389
:1011F800184604F0C1FF03467B737B7B184600F05A
:10120800F3F803463B737B6801331B78312B04D119
:101218003B7B0121184600F09DF87B6801331B7861
:10122800322B04D13B7B0221184600F093F87B68EF
:1012380001331B78302B04D13B7B0021184600F08A
:1012480089F801237B7207F109014FF0FF3301226E
:101258000C4803F04DFC0AE00023FB7207F10B0178
:101268004FF0FF330122074803F042FC00BF00BFE4
:101278001037BD4680BD00BF23020020F4000020C7
:101288007FEE36008C010020B0B58AB000AF7860E0
:101298007B681B68294A93424BD1294B1B78452B05
:1012A8000CD1012387F8273007F127014FF0FF33CE
:1012B8000122244803F01CFCFFF7C8FB204B1B78D5
:1012C8000A2B0CD1204B1B781A46204B002199542D
:1012D8001E48FFF753FF1C4B00221A7024E01A4BDC
:1012E8001B78082B0BD8184B1B785A1CD1B2164AFE
:1012F80011701A46124B1978144B995414E0144B78
:1013080007F10C041D460FCD0FC495E8070003C470
:10131800227007F10C014FF0FF331822094803F03F
:10132800E7FB094B00221A7001220549054803F022
:1013380031FD00BF2837BD46B0BD00BF00440040A6
:10134800140200208C010020220200201802002034
:101358001863000880B584B000AF03460A46FB71E5
:101368001346BB7111233B73FB797B73BB79012B4C
:1013780002D0BB79002B11D100220121174800F0BF
:10138800D1FE07F10C014FF0FF330222144802F09E
:10139800DEFB01220121114800F0C4FEBB79022BBB
:1013A80002D0BB79002B15D100224FF480614FF099
:1013B800904000F0B7FE07F10C014FF0FF33022216
:1013C800074802F0C4FB01224FF480614FF09040BF
:1013D80000F0A8FE00BF1037BD4680BD00040048DD
:1013E8009000002000000000B0B588B000AF0346B0
:1013F800FB71314BFB61314BBB61D7ED066A97ED51
:10140800077AC6EE877AC7ED057AFB79142B01D9DE
:101418001423FB71FB7907EE903AF8EE677A17EE22
:10142800900AFFF739F84FF00002254BFFF7B6F99D
:1014380002460B4614461D467869FFF72DF84FF013
:101448000002204BFEF7C8FE02460B4620462946FE
:10145800FFF77AF802460B46104619464FF000028D
:10146800184BFEF7BBFE02460B4610461946FFF71F
:101478009DFA03463B613869FFF70EF84FF000020A
:10148800104BFEF7A9FE02460B4609A1D1E900015F
:10149800FFF784F902460B4610461946FFF766FA2D
:1014A8000346FB73FB7B18462037BD46B0BD00BF23
:1014B8000000000000E06F407B141E400000A041C7
:1014C800000034400000F03F80B400AF72B600BFA7
:1014D80000BFFDE780B582B000AF0F4B9B690E4A95
:1014E80043F0010393610C4B9B6903F001037B609C
:1014F8007B68094BDB69084A43F08053D361064B8C
:10150800DB6903F080533B603B68072000F0E4FA96
:1015180000BF0837BD4680BD0010024080B58AB0C4
:1015280000AF786007F1140300221A605A609A60CD
:10153800DA601A617B681B68154A934224D1154BFF
:10154800DB69144A43F00053D361124BDB6903F0A3
:1015580000533B613B690F4B5B690E4A43F4003310
:1015680053610C4B5B6903F40033FB60FB68302369
:101578007B610323BB610023FB6107F11403194658
:101588004FF0904000F044FC00BF2837BD4680BDB6
:10159800007400400010024080B58AB000AF786047
:1015A80007F1140300221A605A609A60DA601A611F
:1015B8007B681B68174A934228D1174BDB69164A88
:1015C80043F48043D361144BDB6903F480433B61EC
:1015D8003B69114B5B69104A43F4802353610E4BFE
:1015E8005B6903F48023FB60FB684FF460437B6115
:1015F8000223BB610023FB6103233B6205237B625B
:1016080007F114031946054800F002FC00BF28370B
:10161800BD4680BD0038004000100240000400486C
:1016280080B584B000AF78607B681B68B3F1804FE9
:1016380014D1154BDB69144A43F00103D361124BF3
:10164800DB6903F00103FB60FB68002200211C201A
:1016580000F04DFA1C2000F066FA10E07B681B6869
:101668000A4A93420BD1084BDB69074A43F002034D
:10167800D361054BDB6903F00203BB60BB6800BFA5
:101688001037BD4680BD00BF001002400004004076
:1016980080B58AB000AF786007F1140300221A60A1
:1016A8005A609A60DA601A617B681B681B4A934229
:1016B80030D11B4BDB691A4A43F40033D361184B12
:1016C800DB6903F400333B613B69154B5B69144AE2
:1016D80043F400335361124B5B6903F40033FB603E
:1016E800FB680C237B610223BB610023FB610023A1
:1016F8003B6207237B6207F1140319464FF09040C1
:1017080000F086FB00220021262000F0F0F92620B8
:1017180000F009FA00BF2837BD4680BD00440040EC
:101728000010024080B400AF00BFFDE780B400AFF6
:1017380000BFFDE780B400AF00BFFDE780B400AF95
:1017480000BFFDE780B400AF00BFFDE780B400AF85
:1017580000BFBD465DF8047B704780B400AF00BF92
:10176800BD465DF8047B704780B400AF00BFBD463E
:101778005DF8047B704780B500AF00F099F800BFB2
:1017880080BD000080B500AF024802F081FD00BFB7
:1017980080BD00BFF400002080B500AF024803F010
:1017A8003DFB00BF80BD00BF8C01002080B400AFAE
:1017B800064BD3F88830054A43F47003C2F88830E2
:1017C80000BFBD465DF8047B704700BF00ED00E038
:1017D800DFF834D0FFF7EAFF0C480D490D4A002323
:1017E80002E0D458C4500433C4188C42F9D30A4ACE
:1017F8000A4C002301E013600432A242FBD304F038
:1018080051FDFFF76DF9FEE7000001200000002000
:10181800600000209867000860000020680300202E
:10182800FEE7000080B500AF084B1B68074A43F08D
:1018380010031360032000F04FF9002000F008F8AF
:10184800FFF748FE0023184680BD00BF0020024075
:1018580080B582B000AF7860124B1A68124B1B78C3
:1018680019464FF47A73B3FBF1F3B2FBF3F318465E
:1018780000F067F90346002B01D001230EE07B68D6
:101888000F2B0AD8002279684FF0FF3000F02FF9AB
:10189800064A7B681360002300E0012318460837D6
:1018A800BD4680BD040000200C0000200800002078
:1018B80080B400AF064B1B781A46064B1B681344CE
:1018C800044A136000BFBD465DF8047B704700BF43
:1018D8000C0000202C02002080B400AF034B1B68D2
:1018E8001846BD465DF8047B704700BF2C020020F7
:1018F80080B584B000AF7860FFF7EEFFB8607B6812
:10190800FB60FB68B3F1FF3F05D00A4B1B781A4612
:10191800FB681344FB6000BFFFF7DEFF0246BB68AD
:10192800D31AFA689A42F7D800BF00BF1037BD46ED
:1019380080BD00BF0C00002080B485B000AF786087
:101948007B6803F00703FB600C4BDB68BB60BA687D
:101958004FF6FF031340BB60FB681A02BB681343D2
:1019680043F0BF6343F40033BB60044ABB68D360F1
:1019780000BF1437BD465DF8047B704700ED00E0FA
:1019880080B400AF044BDB681B0A03F0070318465A
:10199800BD465DF8047B704700ED00E080B483B07D
:1019A80000AF0346FB7197F90730002B0BDBFB797F
:1019B80003F01F02074997F907305B09012000FA75
:1019C80002F241F8232000BF0C37BD465DF8047BC6
:1019D800704700BF00E100E080B483B000AF034669
:1019E8003960FB7197F90730002B0ADB3B68DAB2E4
:1019F8000C4997F907301201D2B20B4483F800233F
:101A08000AE03B68DAB20849FB7903F00F03043BAC
:101A18001201D2B20B441A7600BF0C37BD465DF8EE
:101A2800047B704700E100E000ED00E080B489B07D
:101A380000AFF860B9607A60FB6803F00703FB61E8
:101A4800FB69C3F10703042B28BF0423BB61FB69AF
:101A58000433062B02D9FB69033B00E000237B61BA
:101A68004FF0FF32BB6902FA03F3DA43BB681A404E
:101A78007B699A404FF0FF317B6901FA03F3D94340
:101A88007B680B40134318462437BD465DF8047B3A
:101A98007047000080B582B000AF78607B68013B7A
:101AA800B3F1807F01D301230FE00A4A7B68013B31
:101AB80053600F214FF0FF30FFF78EFF054B0022D8
:101AC8009A60044B07221A60002318460837BD465F
:101AD80080BD00BF10E000E080B582B000AF786044
:101AE8007868FFF729FF00BF0837BD4680BD80B57D
:101AF80086B000AF0346B9607A60FB7300237B6150
:101B0800FFF73EFF78617A68B9687869FFF78EFF5A
:101B1800024697F90F3011461846FFF75DFF00BFE0
:101B28001837BD4680BD80B582B000AF0346FB7153
:101B380097F907301846FFF731FF00BF0837BD4651
:101B480080BD80B582B000AF78607868FFF7A2FFEB
:101B5800034618460837BD4680BD80B582B000AF41
:101B680078607B68002B01D1012314E07B681B7926
:101B7800DBB2002B05D17B6800225A717868FFF729
:101B8800CDFC7B6802221A717B6800221A617B688F
:101B980001221A71002318460837BD4680BD80B45B
:101BA80087B000AFF860B9607A603B6000237B6162
:101BB800FB681B687B61BB68002B05D17A697B6871
:101BC800134408337B6104E07A697B681344143357
:101BD8007B617B691A463B681360002318461C37F3
:101BE800BD465DF8047B704780B483B000AF786071
:101BF80039607B685B79012B01D1022339E07B686E
:101C080001225A717B6802221A717B681B68196865
:101C180001223B689A407B681B680A431A603B684C
:101C2800002B0FD17B681B681B6803F03C033C2B1F
:101C380018D17B681B685A687B681B6842F00102F0
:101C48005A600FE07B681B681B6803F47013B3F5D8
:101C5800701F07D17B681B685A687B681B6842F055
:101C680002025A607B6801221A717B6800225A714D
:101C7800002318460C37BD465DF8047B704780B4D6
:101C880087B000AFF860B9607A6000237B610023F9
:101C98003B61FB685B79012B01D1022336E0FB68CD
:101CA80001225A71FB6802221A71FB681B681B68C3
:101CB8007B6140F6FE727B6802FA03F3DB437A69C4
:101CC80013407B61BB681A68BB685B6813433B6160
:101CD8003A697B6802FA03F37A6913437B61FB680C
:101CE8001B687A691A60FB681B681968C0227B68E0
:101CF80002FA03F3DA43FB681B680A401A60FB68C0
:101D080001221A71FB6800225A71002318461C37F9
:101D1800BD465DF8047B704780B483B000AF78603F
:101D28007B68002B01D101232EE07B6893F82130DA
:101D3800022B08D07B6804229A637B68002283F810
:101D48002020012320E07B681B681A687B681B68D9
:101D580022F00E021A607B681B681A687B681B6891
:101D680022F001021A607B681A6C7B68DB6B012128
:101D780001FA02F25A607B68012283F821207B680D
:101D8800002283F82020002318460C37BD465DF852
:101D9800047B704780B584B000AF78600023FB7384
:101DA8007B6893F82130022B05D07B6804229A6364
:101DB8000123FB7327E07B681B681A687B681B6834
:101DC80022F00E021A607B681B681A687B681B6821
:101DD80022F001021A607B681A6C7B68DB6B0121B8
:101DE80001FA02F25A607B68012283F821207B689D
:101DF800002283F820207B685B6B002B03D07B6874
:101E08005B6B78689847FB7B18461037BD4680BDEA
:101E180080B487B000AF7860396000237B6160E1EF
:101E28003B681A6801217B6901FA03F31340FB60E0
:101E3800FB68002B00F052813B685B6803F00303EA
:101E4800012B05D03B685B6803F00303022B30D1FC
:101E58007B689B683B617B695B00032202FA03F3A2
:101E6800DB433A6913403B613B68DA687B695B0096
:101E780002FA03F33A6913433B617B683A699A6053
:101E88007B685B683B6101227B6902FA03F3DB43F1
:101E98003A6913403B613B685B681B0903F0010228
:101EA8007B6902FA03F33A6913433B617B683A6939
:101EB8005A603B685B6803F00303032B17D07B6809
:101EC800DB683B617B695B00032202FA03F3DB43B7
:101ED8003A6913403B613B689A687B695B0002FA88
:101EE80003F33A6913433B617B683A69DA603B68FC
:101EF8005B6803F00303022B23D17B69DA087B6854
:101F0800083253F822303B617B6903F007039B00DA
:101F18000F2202FA03F3DB433A6913403B613B6843
:101F28001A697B6903F007039B0002FA03F33A6915
:101F380013433B617B69DA087B680832396943F8E7
:101F480022107B681B683B617B695B00032202FAF5
:101F580003F3DB433A6913403B613B685B6803F07A
:101F680003027B695B0002FA03F33A6913433B619E
:101F78007B683A691A603B685B6803F44033002B5E
:101F880000F0AC805E4B9B695D4A43F001039361AE
:101F98005B4B9B6903F00103BB60BB68594A7B69D3
:101FA8009B08023352F823303B617B6903F003033B
:101FB8009B000F2202FA03F3DB433A6913403B61AB
:101FC8007B68B3F1904F25D07B684F4A93421FD06E
:101FD8007B684E4A934219D07B684D4A934213D08E
:101FE8007B684C4A93420DD07B684B4A934207D09A
:101FF8007B684A4A934201D106230CE007230AE092
:10200800052308E0042306E0032304E0022302E09A
:10201800012300E000237A6902F003029200934052
:102028003A6913433B6137497B699B0802333A6934
:1020380041F823203A4B9B683B61FB68DB433A69D4
:1020480013403B613B685B6803F48013002B03D0AB
:102058003A69FB6813433B61314A3B699360304BF3
:10206800DB683B61FB68DB433A6913403B613B68D3
:102078005B6803F40013002B03D03A69FB68134331
:102088003B61274A3B69D360254B5B683B61FB6832
:10209800DB433A6913403B613B685B6803F40033F8
:1020A800002B03D03A69FB6813433B611C4A3B6928
:1020B80053601B4B1B683B61FB68DB433A69134069
:1020C8003B613B685B6803F48033002B03D03A69BB
:1020D800FB6813433B61124A3B6913607B69013318
:1020E8007B613B681A687B6922FA03F3002B7FF453
:1020F80097AE00BF00BF1C37BD465DF8047B704734
:102108000010024000000140000400480008004898
:10211800000C00480010004800140048001800484F
:102128000004014080B483B000AF78600B467B8028
:1021380013467B707B78002B03D07A887B689A6182
:1021480002E07A887B689A6200BF0C37BD465DF86A
:10215800047B704780B5ADF5027D00AF07F50273CB
:10216800A3F50173186007F50273A3F501731B68E3
:10217800002B02D1012301F00AB807F50273A3F579
:1021880001731B681B6803F00103002B00F06181D9
:10219800AE4B5B6803F00C03042B0CD0AB4B5B68B5
:1021A80003F00C03082B57D1A84B5B6803F4C0332A
:1021B800B3F5803F50D14FF40033C7F8F431D7F866
:1021C800F43193FAA3F3C7F8F031D7F8F031B3FA42
:1021D80083F3DBB23F2B02D89C4B1B6815E04FF40E
:1021E8000033C7F8EC31D7F8EC3193FAA3F3C7F80A
:1021F800E8314FF40033C7F8E431D7F8E43193FA03
:10220800A3F3C7F8E031914B5B6A4FF40032C7F88B
:10221800DC21D7F8DC2192FAA2F2C7F8D821D7F846
:10222800D821B2FA82F2D2B242F02002D2B202F03F
:102238001F02012101FA02F21340002B00F008816D
:1022480007F50273A3F501731B685B68002B40F068
:10225800FF80012300F09BBF07F50273A3F501730C
:102268001B685B68B3F5803F06D1784B1B68774ADB
:1022780043F48033136036E007F50273A3F5017366
:102288001B685B68002B0CD1704B1B686F4A23F4EA
:10229800803313606D4B1B686C4A23F480231360F2
:1022A80021E007F50273A3F501731B685B68B3F5BA
:1022B800A02F0CD1654B1B68644A43F4802313603C
:1022C800624B1B68614A43F4803313600BE05F4B39
:1022D8001B685E4A23F4803313605C4B1B685B4ABF
:1022E80023F48023136007F50273A3F501731B68B9
:1022F8005B68002B54D0FFF7EFFAC7F800020AE03A
:10230800FFF7EAFA0246D7F80032D31A642B02D94B
:10231800032300F03CBF4FF40033C7F8D431D7F89B
:10232800D43193FAA3F3C7F8D031D7F8D031B3FA40
:1023380083F3DBB23F2B02D8444B1B6815E04FF404
:102348000033C7F8CC31D7F8CC3193FAA3F3C7F8E8
:10235800C8314FF40033C7F8C431D7F8C43193FA01
:10236800A3F3C7F8C031394B5B6A4FF40032C7F8A2
:10237800BC21D7F8BC2192FAA2F2C7F8B821D7F845
:10238800B821B2FA82F2D2B242F02002D2B202F0FE
:102398001F02012101FA02F21340002BB0D058E0CD
:1023A800FFF79AFAC7F800020AE0FFF795FA024623
:1023B800D7F80032D31A642B02D9032300F0E7BE02
:1023C8004FF40033C7F8B431D7F8B43193FAA3F314
:1023D800C7F8B031D7F8B031B3FA83F3DBB23F2B8B
:1023E80002D81A4B1B6815E04FF40033C7F8AC311C
:1023F800D7F8AC3193FAA3F3C7F8A8314FF40033F8
:10240800C7F8A431D7F8A43193FAA3F3C7F8A031D9
:102418000E4B5B6A4FF40032C7F89C21D7F89C2119
:1024280092FAA2F2C7F89821D7F89821B2FA82F264
:10243800D2B242F02002D2B202F01F02012101FA08
:1024480002F21340002BB0D103E000BF001002409D
:1024580000BF07F50273A3F501731B681B6803F03F
:102468000203002B00F06D81CD4B5B6803F00C0379
:10247800002B0CD0CA4B5B6803F00C03082B6ED101
:10248800C74B5B6803F4C033B3F5004F67D1022331
:10249800C7F89431D7F8943193FAA3F3C7F8903179
:1024A800D7F89031B3FA83F3DBB23F2B02D8BC4B99
:1024B8001B6813E00223C7F88C31D7F88C3193FAE4
:1024C800A3F3C7F888310223C7F88431D7F88431D9
:1024D80093FAA3F3C7F88031B14B5B6A0222C7F8BD
:1024E8007C21D7F87C2192FAA2F2C7F87821D7F894
:1024F8007821B2FA82F2D2B242F02002D2B202F0CD
:102508001F02012101FA02F21340002B0AD007F53D
:102518000273A3F501731B68DB68012B02D001234A
:1025280000F035BE9E4B1B6823F0F80207F50273D6
:10253800A3F501731B681B69F821C7F87411D7F854
:10254800741191FAA1F1C7F87011D7F87011B1FAA6
:1025580081F1C9B28B40924913430B60F1E007F552
:102568000273A3F501731B68DB68002B00F08380FE
:102578000123C7F86C31D7F86C3193FAA3F3C7F885
:102588006831D7F86831B3FA83F3DBB203F18453C7
:1025980003F584139B001A4601231360FFF79CF987
:1025A800C7F800020AE0FFF797F90246D7F80032A9
:1025B800D31A022B02D9032300F0E9BD0223C7F87E
:1025C8006431D7F8643193FAA3F3C7F86031D7F8C8
:1025D8006031B3FA83F3DBB23F2B02D8704B1B6830
:1025E80013E00223C7F85C31D7F85C3193FAA3F300
:1025F800C7F858310223C7F85431D7F8543193FA41
:10260800A3F3C7F85031664B5B6A0222C7F84C2126
:10261800D7F84C2192FAA2F2C7F84821D7F84821F6
:10262800B2FA82F2D2B242F02002D2B202F01F0213
:10263800012101FA02F21340002BB4D0584B1B6859
:1026480023F0F80207F50273A3F501731B681B69F1
:10265800F821C7F84411D7F8441191FAA1F1C7F845
:102668004011D7F84011B1FA81F1C9B28B404C49F9
:1026780013430B6065E00123C7F83C31D7F83C31C0
:1026880093FAA3F3C7F83831D7F83831B3FA83F39C
:10269800DBB203F1845303F584139B001A4600232D
:1026A8001360FFF719F9C7F800020AE0FFF714F9F9
:1026B8000246D7F80032D31A022B02D9032300F0BE
:1026C80066BD0223C7F83431D7F8343193FAA3F33F
:1026D800C7F83031D7F83031B3FA83F3DBB23F2B88
:1026E80002D82F4B1B6813E00223C7F82C31D7F808
:1026F8002C3193FAA3F3C7F828310223C7F8243101
:10270800D7F8243193FAA3F3C7F82031244B5B6A36
:102718000222C7F81C21D7F81C2192FAA2F2C7F8A6
:102728001821D7F81821B2FA82F2D2B242F0200268
:10273800D2B202F01F02012101FA02F21340002B6B
:10274800B4D107F50273A3F501731B681B6803F086
:102758000803002B00F0198107F50273A3F5017334
:102768001B685B69002B00F082800123C7F81431D5
:10277800D7F8143193FAA3F3C7F81031D7F810310A
:10278800B3FA83F3DBB21A46064B13449B001A468E
:1027980001231360FFF7A0F8C7F800020FE000BF9D
:1027A8000010024020819010FFF796F80246D7F8F3
:1027B8000032D31A022B02D9032300F0E8BC02230B
:1027C800C7F80C31D7F80C3193FAA3F207F5027366
:1027D800A3F580731A6007F50273A3F582730222CA
:1027E8001A6007F50273A3F582731B6893FAA3F2C4
:1027F80007F50273A3F584731A6007F50273A3F54E
:10280800867302221A6007F50273A3F586731B68A4
:1028180093FAA3F207F50273A3F588731A60B04B15
:102828005A6A07F50273A3F58A730221196007F53E
:102838000273A3F58A731B6893FAA3F107F5027371
:10284800A3F58C73196007F50273A3F58C731B68E5
:10285800B3FA83F3DBB243F06003DBB203F01F0388
:10286800012101FA03F31340002B9DD08DE007F5F9
:102878000273A3F58E7301221A6007F50273A3F59C
:102888008E731B6893FAA3F207F50273A3F590738E
:102898001A6007F50273A3F590731B68B3FA83F304
:1028A800DBB21A468F4B13449B001A460023136071
:1028B800FFF712F8C7F800020AE0FFF70DF8024622
:1028C800D7F80032D31A022B02D9032300F05FBCD9
:1028D80007F50273A3F5927302221A6007F50273D3
:1028E800A3F592731B6893FAA3F207F50273A3F595
:1028F80094731A6007F50273A3F5967302221A609F
:1029080007F50273A3F596731B6893FAA3F207F50C
:102918000273A3F598731A6007F50273A3F59A7307
:1029280002221A6007F50273A3F59A731B6893FADB
:10293800A3F207F50273A3F59C731A60684B5A6AF1
:1029480007F50273A3F59E730221196007F5027358
:10295800A3F59E731B6893FAA3F107F50273A3F519
:10296800A073196007F50273A3F5A0731B68B3FA87
:1029780083F3DBB243F06003DBB203F01F030121F2
:1029880001FA03F31340002B97D107F50273A3F55F
:1029980001731B681B6803F00403002B00F09C8183
:1029A800002387F807324E4BDB6903F08053002B76
:1029B80016D14B4BDB694A4A43F08053D361484BED
:1029C800DB6903F0805207F50273A3F5FE731A6002
:1029D80007F50273A3F5FE731B68012387F8073216
:1029E800414B1B6803F48073002B1AD13E4B1B68C4
:1029F8003D4A43F480731360FEF76EFFC7F8000288
:102A080009E0FEF769FF0246D7F80032D31A642BB3
:102A180001D90323BBE3344B1B6803F48073002BF9
:102A2800EFD007F50273A3F501731B689B68012BB0
:102A380006D12B4B1B6A2A4A43F00103136235E087
:102A480007F50273A3F501731B689B68002B0CD173
:102A5800234B1B6A224A23F001031362204B1B6A93
:102A68001F4A23F00403136220E007F50273A3F55D
:102A780001731B689B68052B0CD1194B1B6A184AFC
:102A880043F004031362164B1B6A154A43F0010313
:102A980013620BE0124B1B6A114A23F00103136205
:102AA8000F4B1B6A0E4A23F00403136207F50273E7
:102AB800A3F501731B689B68002B00F08580FEF767
:102AC8000BFFC7F8000211E0FEF706FF0246D7F831
:102AD8000032D31A41F28832934207D9032356E3CE
:102AE80000100240208190100070004007F502732A
:102AF800A3F5A27302221A6007F50273A3F5A27365
:102B08001B6893FAA3F207F50273A3F5A4731A607E
:102B180007F50273A3F5A67302221A6007F502737C
:102B2800A3F5A6731B6893FAA3F207F50273A3F53E
:102B3800A8731A6007F50273A3F5A8731B68B3FAA4
:102B480083F3DBB223F05F03DBB2002B02D1984B97
:102B58001B6A13E007F50273A3F5AA7302221A6031
:102B680007F50273A3F5AA731B6893FAA3F207F596
:102B78000273A3F5AC731A608D4B5B6A07F502729A
:102B8800A2F5AE720221116007F50272A2F5AE72CB
:102B9800126892FAA2F107F50272A2F5B0721160FA
:102BA80007F50272A2F5B0721268B2FA82F2D2B2D6
:102BB80042F04002D2B202F01F02012101FA02F2F1
:102BC8001340002B80D07DE0FEF786FEC7F8000298
:102BD8000BE0FEF781FE0246D7F80032D31A41F225
:102BE8008832934201D90323D1E207F50273A3F592
:102BF800B27302221A6007F50273A3F5B2731B6859
:102C080093FAA3F207F50273A3F5B4731A6007F5F4
:102C18000273A3F5B67302221A6007F50273A3F5CF
:102C2800B6731B6893FAA3F207F50273A3F5B8739A
:102C38001A6007F50273A3F5B8731B68B3FA83F338
:102C4800DBB223F05F03DBB2002B02D1584B1B6AC7
:102C580013E007F50273A3F5BA7302221A6007F5A9
:102C68000273A3F5BA731B6893FAA3F207F502730C
:102C7800A3F5BC731A604E4B5B6A07F50272A2F5A6
:102C8800BE720221116007F50272A2F5BE721268C7
:102C980092FAA2F107F50272A2F5C072116007F567
:102CA8000272A2F5C0721268B2FA82F2D2B242F08F
:102CB8004002D2B202F01F02012101FA02F21340CF
:102CC800002B86D197F80732012B05D1384BDB69E9
:102CD800374A23F08053D36107F50273A3F50173D4
:102CE8001B689B69002B00F05182314B5B6803F035
:102CF8000C03082B00F00F8207F50273A3F501738C
:102D08001B689B69022B40F0658107F50273A3F5E8
:102D1800C2734FF080721A6007F50273A3F5C2738D
:102D28001B6893FAA3F207F50273A3F5C4731A603C
:102D380007F50273A3F5C4731B68B3FA83F3DBB218
:102D480003F1845303F584139B001A460023136090
:102D5800FEF7C2FDC7F8000209E0FEF7BDFD024616
:102D6800D7F80032D31A022B01D903230FE207F553
:102D78000273A3F5C6734FF000721A6007F5027369
:102D8800A3F5C6731B6893FAA3F207F50273A3F5BC
:102D9800C8731A6007F50273A3F5C8731B68B3FA02
:102DA80083F3DBB23F2B05D8014B1B682AE000BF39
:102DB8000010024007F50273A3F5CA734FF00072C2
:102DC8001A6007F50273A3F5CA731B6893FAA3F296
:102DD80007F50273A3F5CC731A6007F50273A3F520
:102DE800CE734FF000721A6007F50273A3F5CE7325
:102DF8001B6893FAA3F207F50273A3F5D0731A6060
:102E0800CA4B5B6A07F50272A2F5D2724FF00071E5
:102E1800116007F50272A2F5D272126892FAA2F155
:102E280007F50272A2F5D472116007F50272A2F5D5
:102E3800D4721268B2FA82F2D2B242F02002D2B24E
:102E480002F01F02012101FA02F21340002B84D183
:102E5800B64BDB6A23F00F0207F50273A3F5017383
:102E68001B685B6AB1491343CB62B04B5B6823F4C0
:102E7800761207F50273A3F501731B68196A07F543
:102E88000273A3F501731B68DB690B43A74913435E
:102E98004B6007F50273A3F5D6734FF080721A6082
:102EA80007F50273A3F5D6731B6893FAA3F207F527
:102EB8000273A3F5D8731A6007F50273A3F5D873E4
:102EC8001B68B3FA83F3DBB203F1845303F584136D
:102ED8009B001A4601231360FEF7FEFCC7F80002A8
:102EE80009E0FEF7F9FC0246D7F80032D31A022BA4
:102EF80001D903234BE107F50273A3F5DA734FF009
:102F080000721A6007F50273A3F5DA731B6893FA67
:102F1800A3F207F50273A3F5DC731A6007F50273D1
:102F2800A3F5DC731B68B3FA83F3DBB23F2B02D83B
:102F38007E4B1B6827E007F50273A3F5DE734FF09D
:102F480000721A6007F50273A3F5DE731B6893FA23
:102F5800A3F207F50273A3F5E0731A6007F502738D
:102F6800A3F5E2734FF000721A6007F50273A3F538
:102F7800E2731B6893FAA3F207F50273A3F5E473EF
:102F88001A606A4B5B6A07F50272A2F5E6724FF0A7
:102F98000071116007F50272A2F5E672126892FAE2
:102FA800A2F107F50272A2F5E872116007F5027244
:102FB800A2F5E8721268B2FA82F2D2B242F02002A6
:102FC800D2B202F01F02012101FA02F21340002BD3
:102FD80087D0DBE007F50273A3F5EA734FF0807240
:102FE8001A6007F50273A3F5EA731B6893FAA3F254
:102FF80007F50273A3F5EC731A6007F50273A3F5DE
:10300800EC731B68B3FA83F3DBB203F1845303F563
:1030180084139B001A4600231360FEF75DFCC7F873
:10302800000209E0FEF758FC0246D7F80032D31A2E
:10303800022B01D90323AAE007F50273A3F5EE7367
:103048004FF000721A6007F50273A3F5EE731B6860
:1030580093FAA3F207F50273A3F5F0731A6007F564
:103068000273A3F5F0731B68B3FA83F3DBB23F2B4B
:1030780002D82E4B1B6827E007F50273A3F5F273FD
:103088004FF000721A6007F50273A3F5F2731B681C
:1030980093FAA3F207F50273A3F5F4731A6007F520
:1030A8000273A3F5F6734FF000721A6007F5027306
:1030B800A3F5F6731B6893FAA3F207F50273A3F559
:1030C800F8731A60194B5B6A07F50272A2F5FA7277
:1030D8004FF00071116007F50272A2F5FA721268DA
:1030E80092FAA2F107F50272A2F5FC72116007F5D7
:1030F8000272A2F5FC721268B2FA82F2D2B242F0FF
:103108002002D2B202F01F02012101FA02F213409A
:10311800002B87D13AE007F50273A3F501731B680A
:103128009B69012B04D1012331E000BF001002404C
:10313800194B5B68C7F8FC31174BDB6AC7F8F831E5
:10314800D7F8FC3103F4C03207F50273A3F5017315
:103158001B68DB699A4217D1D7F8FC3103F4701267
:1031680007F50273A3F501731B681B6A9A420BD11A
:10317800D7F8F83103F00F0207F50273A3F50173CE
:103188001B685B6A9A4201D0012300E000231846BD
:1031980007F50277BD4680BD0010024080B59EB09D
:1031A80000AF7860396000237B677B68002B01D112
:1031B800012354E1894B1B6803F007033A689A42DC
:1031C80010D9864B1B6823F0070284493B681343D8
:1031D8000B60824B1B6803F007033A689A4201D0E0
:1031E80001233CE17B681B6803F00203002B08D035
:1031F8007B4B5B6823F0F0027B689B68784913433C
:103208004B607B681B6803F00103002B00F0CD8046
:103218007B685B68012B37D14FF40033FB66FB6E8C
:1032280093FAA3F33B673B6FB3FA83F3DBB23F2B0D
:1032380002D86B4B1B680FE04FF40033BB66BB6EC4
:1032480093FAA3F37B664FF400333B663B6E93FA25
:10325800A3F3FB65624B5B6A4FF40032BA65BA6D43
:1032680092FAA2F27A657A6DB2FA82F2D2B242F09A
:103278002002D2B202F01F02012101FA02F2134029
:10328800002B71D10123EAE07B685B68022B37D100
:103298004FF000733B653B6D93FAA3F3FB64FB6C43
:1032A800B3FA83F3DBB23F2B02D84D4B1B680FE018
:1032B8004FF00073BB64BB6C93FAA3F37B644FF0CD
:1032C80000733B643B6C93FAA3F3FB63444B5B6A68
:1032D8004FF00072BA63BA6B92FAA2F27A637A6B11
:1032E800B2FA82F2D2B242F02002D2B202F01F0247
:1032F800012101FA02F21340002B35D10123AEE07F
:1033080002233B633B6B93FAA3F3FB62FB6AB3FABA
:1033180083F3DBB23F2B02D8314B1B680DE002234D
:10332800BB62BB6A93FAA3F37B6202233B623B6AEC
:1033380093FAA3F3FB612A4B5B6A0222BA61BA696A
:1033480092FAA2F27A617A69B2FA82F2D2B242F0C1
:103358002002D2B202F01F02012101FA02F2134048
:10336800002B01D101237AE01D4B5B6823F0030297
:103378007B685B681A4913434B60FEF7ADFA7867C0
:103388000AE0FEF7A9FA02467B6FD31A41F28832A7
:10339800934201D9032362E0114B5B6803F00C02EE
:1033A8007B685B689B009A42EBD10C4B1B6803F06F
:1033B80007033A689A4215D2084B1B6823F00702A4
:1033C80006493B6813430B60044B1B6803F0070373
:1033D8003A689A4206D0012341E000BF002002402B
:1033E800001002407B681B6803F00403002B08D020
:1033F8001D4B5B6823F4E0627B68DB681A49134362
:103408004B607B681B6803F00803002B09D0164B40
:103418005B6823F460527B681B69DB001249134325
:103428004B6000F029F801460F4B5B6803F0F0038E
:10343800F0223A613A6992FAA2F2FA60FA68B2FAAC
:1034480082F2D2B2D340094AD35C21FA03F3084A84
:103458001360084B1B681846FEF7FAF90023184654
:103468007837BD4680BD00BF001002405466000892
:10347800040000200800002080B487B000AF0023BB
:10348800FB600023BB6000237B6100237B6000237B
:103498003B611F4B5B68FB60FB6803F00C03042B6C
:1034A80002D0082B03D029E01A4B3B6129E0FB68C6
:1034B8009B0C03F00F03184AD35C7B60144BDB6A48
:1034C80003F00F03154AD35CBB60FB6803F4803339
:1034D800002B08D00F4ABB68B2FBF3F27B6802FBF3
:1034E80003F37B6107E00B4ABB68B2FBF3F27B682E
:1034F80002FB03F37B617B693B6102E0054B3B61A7
:1035080000BF3B6918461C37BD465DF8047B704711
:103518000010024000127A006C6600087C66000801
:1035280080B400AF034B1B681846BD465DF8047BAA
:10353800704700BF0400002080B582B000AFFFF7DD
:10354800EFFF01460B4B5B6803F4E0634FF4E06266
:103558007A607A6892FAA2F23A603A68B2FA82F22B
:10356800D2B2D340044AD35C21FA03F31846083791
:10357800BD4680BD001002406466000880B582B078
:1035880000AFFFF7CDFF01460B4B5B6803F46053B8
:103598004FF460527A607A6892FAA2F23A603A6816
:1035A800B2FA82F2D2B2D340044AD35C21FA03F3CE
:1035B80018460837BD4680BD001002406466000802
:1035C80080B592B000AF786000233B640023FB63B2
:1035D800002387F847307B681B6803F48033002B8F
:1035E80000F0D2804D4BDB6903F08053002B0ED1E5
:1035F8004A4BDB69494A43F08053D361474BDB6947
:1036080003F08053BB60BB68012387F84730444B05
:103618001B6803F48073002B18D1414B1B68404A88
:1036280043F480731360FEF757F9386408E0FEF737
:1036380053F902463B6CD31A642B01D90323D4E116
:10364800374B1B6803F48073002BF0D0334B1B6A95
:1036580003F44073FB63FB6B002B00F082807B68F4
:103668005B6803F44073FA6B9A427AD02B4B1B6A5F
:1036780023F44073FB634FF480333B633B6B93FA53
:10368800A3F3FB62FB6AB3FA83F3DBB21A46254B5A
:1036980013449B001A46012313604FF48033BB6325
:1036A800BB6B93FAA3F37B637B6BB3FA83F3DBB255
:1036B8001A461C4B13449B001A4600231360174AF2
:1036C800FB6B1362FB6B03F00103002B49D0FEF781
:1036D80003F938640AE0FEF7FFF802463B6CD31A98
:1036E80041F28832934201D903237EE10223BB626F
:1036F800BB6A93FAA3F37B6202233B623B6A93FAA9
:10370800A3F3FB61FB69B3FA83F3DBB223F05F0336
:10371800DBB2002B08D1014B1B6A0DE00010024000
:1037280000700040008190100223BB61BB6993FACE
:10373800A3F37B619A4B5B6A02223A613A6992FA77
:10374800A2F2FA60FA68B2FA82F2D2B242F0400209
:10375800D2B202F01F02012101FA02F21340002B3B
:10376800B9D08F4B1B6A23F440727B685B688C4925
:1037780013430B6297F84730012B05D1884BDB695F
:10378800874A23F08053D3617B681B6803F00103E9
:10379800002B08D0824B1B6B23F003027B689B68CD
:1037A8007F4913430B637B681B6803F00203002BFC
:1037B80008D07B4B1B6B23F440327B68DB6878496D
:1037C80013430B637B681B6803F00403002B08D0CA
:1037D800734B1B6B23F440227B681B6970491343AE
:1037E8000B637B681B6803F02003002B08D06C4B2D
:1037F8001B6B23F010027B68DB69694913430B6379
:103808007B681B6803F40033002B08D0644B5B68AB
:1038180023F480027B685B6D614913434B607B68CE
:103828001B6803F04003002B08D05D4B1B6B23F093
:1038380020027B681B6A5A4913430B637B681B6829
:1038480003F48023002B08D0554B1B6B23F0400258
:103858007B685B6A524913430B637B681B6803F000
:103868000803002B08D04E4B1B6B23F440127B68D7
:103878005B694B4913430B637B681B6803F01003B8
:10388800002B08D0464B1B6B23F440027B689B69D6
:10389800434913430B637B681B6803F40073002BD5
:1038A80008D03F4B5B6823F400027B681B6B3C49E4
:1038B80013434B607B681B6803F08003002B08D020
:1038C800374BDB6A23F4F8727B689B6A34491343ED
:1038D800CB627B681B6803F48073002B08D0304BE5
:1038E800DB6A23F478527B68DB6A2D491343CB6289
:1038F8007B681B6803F48053002B08D0284B1B6B94
:1039080023F480727B685B6B254913430B637B68E8
:103918001B6803F40053002B08D0214B1B6B23F4C6
:1039280000727B681B6C1E4913430B637B681B6822
:1039380003F48013002B08D0194B1B6B23F0807203
:103948007B689B6B164913430B637B681B6803F406
:103958000013002B08D0124B1B6B23F000727B68FE
:10396800DB6B0F4913430B637B681B6803F480030D
:10397800002B08D00A4B1B6B23F480627B685B6CBE
:10398800074913430B637B681B6803F40003002B90
:103998000CD0034B1B6B23F400627B6802E000BF72
:1039A800001002409B6C134913430B637B681B6830
:1039B80003F08073002B08D00E4B1B6B23F40052CE
:1039C8007B68DB6C0B4913430B637B681B6803F054
:1039D8000073002B08D0074B1B6B23F400427B6855
:1039E8001B6D044913430B63002318464837BD4633
:1039F80080BD00BF0010024080B584B000AF786081
:103A08007B68002B01D101239DE07B685B6A002B5A
:103A180008D17B685B68B3F5827F09D07B68002298
:103A2800DA6105E07B6800221A617B6800225A612E
:103A38007B6800229A627B6893F85D30DBB2002BCA
:103A480006D17B68002283F85C207868FDF7A4FD26
:103A58007B68022283F85D207B681B681A687B6894
:103A68001B6822F040021A607B68DB68B3F5E06FE0
:103A780002D90023FB6002E04FF48053FB607B68AF
:103A8800DB68B3F5706F07D07B68DB68B3F5E06F70
:103A980002D07B6800229A627B685B6803F48272BA
:103AA8007B689B6803F404431A437B681B6903F033
:103AB80002031A437B685B6903F001031A437B68BE
:103AC8009B6903F400731A437B68DB6903F03803CE
:103AD8001A437B681B6A03F0800342EA03017B6890
:103AE8009B6A03F400527B681B680A431A607B6870
:103AF8009B691B0C03F004027B685B6A03F01003EC
:103B08001A437B685B6B03F008031A437B68DB6826
:103B180003F4706342EA0301FB6803F480527B6894
:103B28001B680A435A607B681B68DA697B681B68F4
:103B380022F40062DA617B6800221A667B6801223F
:103B480083F85D20002318461037BD4680BD80B538
:103B580088B000AFF860B9603B601346FB80002373
:103B6800FB77FB6893F85C30012B01D102235FE1FE
:103B7800FB68012283F85C20FDF7AEFEB861FB8884
:103B8800FB82FB6893F85D30DBB2012B02D0022385
:103B9800FB7748E1BB68002B02D0FB88002B02D1E1
:103BA8000123FB773FE1FB68032283F85D20FB6874
:103BB80000221A66FB68BA689A63FB68FA889A87D3
:103BC800FB68FA88DA87FB6800221A64FB6800221F
:103BD800A3F84420FB680022A3F84620FB680022D3
:103BE8001A65FB680022DA64FB689B68B3F5004F2E
:103BF8000FD1FB681B681A68FB681B6822F040023B
:103C08001A60FB681B681A68FB681B6842F48042EC
:103C18001A60FB681B681B6803F04003402B07D041
:103C2800FB681B681A68FB681B6842F040021A6050
:103C3800FB68DB68B3F5E06F4FD9FB685B68002B66
:103C480002D0FB8A012B42D1FB689B6B1A88FB6868
:103C58001B68DA60FB689B6B9A1CFB689A63FB68BD
:103C6800DB8F9BB2013B9AB2FB68DA872FE0FB68D7
:103C78001B689B6803F00203022B12D1FB689B6B45
:103C88001A88FB681B68DA60FB689B6B9A1CFB68E8
:103C98009A63FB68DB8F9BB2013B9AB2FB68DA87B9
:103CA80015E0FDF719FE0246BB69D31A3A689A4235
:103CB80003D83B68B3F1FF3F02D13B68002B06D124
:103CC8000323FB77FB68012283F85D20ABE0FB68E8
:103CD800DB8F9BB2002BCAD180E0FB685B68002BAE
:103CE80002D0FB8A012B74D1FB68DB8F9BB2012BBE
:103CF80012D9FB689B6B1A88FB681B68DA60FB6843
:103D08009B6B9A1CFB689A63FB68DB8F9BB2023B38
:103D18009AB2FB68DA875CE0FB689A6BFB681B6801
:103D28000C3312781A70FB689B6B5A1CFB689A63F9
:103D3800FB68DB8F9BB2013B9AB2FB68DA8748E0ED
:103D4800FB681B689B6803F00203022B2BD1FB68FE
:103D5800DB8F9BB2012B12D9FB689B6B1A88FB681F
:103D68001B68DA60FB689B6B9A1CFB689A63FB68AC
:103D7800DB8F9BB2023B9AB2FB68DA8729E0FB68CB
:103D88009A6BFB681B680C3312781A70FB689B6B84
:103D98005A1CFB689A63FB68DB8F9BB2013B9AB2A3
:103DA800FB68DA8715E0FDF797FD0246BB69D31A71
:103DB8003A689A4203D83B68B3F1FF3F02D13B68A7
:103DC800002B06D10323FB77FB68012283F85D20D3
:103DD80029E0FB68DB8F9BB2002BB1D1BA69396847
:103DE800F86800F047F90346002B02D0FB68202250
:103DF8001A66FB689B68002B0AD100233B61FB68AD
:103E08001B68DB683B61FB681B689B683B613B691F
:103E1800FB681B6E002B02D00123FB7703E0FB68D5
:103E2800012283F85D20FB68002283F85C20FB7F79
:103E380018462037BD4680BD80B588B000AFF86011
:103E4800B9603B601346FB71FDF746FD0246BB6A4D
:103E58009B1A3A681344FB61FDF73EFDB861394B84
:103E68001B685B011B0DFA6902FB03F37B6154E0DD
:103E78003B68B3F1FF3F50D0FDF72EFD0246BB690A
:103E8800D31AFA699A4202D9FB69002B3DD1FB6823
:103E98001B685A68FB681B6822F0E0025A60FB68DE
:103EA8005B68B3F5827F11D1FB689B68B3F5004F5F
:103EB80004D0FB689B68B3F5806F07D1FB681B686B
:103EC8001A68FB681B6822F040021A60FB689B6A4C
:103ED800B3F5005F0FD1FB681B681A68FB681B68A5
:103EE80022F400521A60FB681B681A68FB681B689A
:103EF80042F400521A60FB68012283F85D20FB68D7
:103F0800002283F85C20032317E07B69002B01D192
:103F18000023FB617B69013B7B61FB681B689A6836
:103F2800BB681340BA689A420CBF01230023DBB276
:103F38001A46FB799A429BD1002318462037BD4682
:103F480080BD00BF0400002080B58AB000AFF860D3
:103F5800B9607A603B600023FB75FDF7BDFC024643
:103F68003B6B9B1A3A6813447B62FDF7B5FC3862D9
:103F7800FB681B680C33FB613D4B1A6813469B00BA
:103F88001344DA00D31A1B0D7A6A02FB03F3BB61F0
:103F980060E0BB68B3F5C06F07D17B68002B04D124
:103FA800FB691B78DBB2FB75FB7D3B68B3F1FF3F18
:103FB80050D0FDF791FC02463B6AD31A7A6A9A42BE
:103FC80002D97B6A002B3DD1FB681B685A68FB68E5
:103FD8001B6822F0E0025A60FB685B68B3F5827FD9
:103FE80011D1FB689B68B3F5004F04D0FB689B6850
:103FF800B3F5806F07D1FB681B681A68FB681B68FC
:1040080022F040021A60FB689B6AB3F5005F0FD18B
:10401800FB681B681A68FB681B6822F400521A6068
:10402800FB681B681A68FB681B6842F400521A6038
:10403800FB68012283F85D20FB68002283F85C207E
:10404800032310E0BB69002B01D100237B62BB690D
:10405800013BBB61FB681B689A68BB6813407A68C0
:104068009A4296D1002318462837BD4680BD00BF26
:104078000400002080B586B002AFF860B9607A60AD
:104088007B680093BB6800224FF4C051F868FFF7C3
:104098005BFF0346002B07D0FB681B6E43F0200232
:1040A800FB681A66032327E07B680093BB6800223D
:1040B8008021F868FFF7C0FE0346002B07D0FB6895
:1040C8001B6E43F02002FB681A66032314E07B682A
:1040D8000093BB6800224FF4C061F868FFF734FF13
:1040E8000346002B07D0FB681B6E43F02002FB68D9
:1040F8001A66032300E0002318461037BD4680BD2A
:1041080080B582B000AF78607B68002B01D10123B5
:1041180049E07B6893F83D30DBB2002B06D17B6821
:10412800002283F83C207868FDF77AFA7B6802223F
:1041380083F83D207B681A687B680433194610466B
:1041480000F09AFA7B68012283F848207B680122F4
:1041580083F83E207B68012283F83F207B68012298
:1041680083F840207B68012283F841207B68012284
:1041780083F842207B68012283F843207B68012270
:1041880083F844207B68012283F845207B6801225C
:1041980083F846207B68012283F847207B68012248
:1041A80083F83D20002318460837BD4680BD00002F
:1041B80080B485B000AF78607B6893F83D30DBB29F
:1041C800012B01D001234FE07B68022283F83D20B8
:1041D8007B681B68DA687B681B6842F00102DA605A
:1041E8007B681B68234A93421DD07B681B68B3F128
:1041F800804F18D07B681B681F4A934213D07B6896
:104208001B681E4A93420ED07B681B681C4A934267
:1042180009D07B681B681B4A934204D07B681B68E3
:10422800194A934215D17B681B689A68174B13404B
:10423800FB60FB68062B15D0FB68B3F5803F11D0F7
:104248007B681B681A687B681B6842F001021A6069
:1042580008E07B681B681A687B681B6842F00102EB
:104268001A6000E000BF002318461437BD465DF809
:10427800047B7047002C0140000400400008004007
:104288000034014000400140005001400700010097
:1042980080B584B000AF78607B681B68DB68FB6022
:1042A8007B681B681B69BB60BB6803F00203002BBB
:1042B80020D0FB6803F00203002B1BD07B681B682F
:1042C8006FF002021A617B6801221A777B681B680B
:1042D8009B6903F00303002B03D0786800F0ADF965
:1042E80005E0786800F09FF9786800F0B0F97B681D
:1042F80000221A77BB6803F00403002B20D0FB6868
:1043080003F00403002B1BD07B681B686FF00402CA
:104318001A617B6802221A777B681B689B6903F421
:104328004073002B03D0786800F087F905E07868BF
:1043380000F079F9786800F08AF97B6800221A772A
:10434800BB6803F00803002B20D0FB6803F00803C8
:10435800002B1BD07B681B686FF008021A617B6812
:1043680004221A777B681B68DB6903F00303002BC0
:1043780003D0786800F061F905E0786800F053F937
:10438800786800F064F97B6800221A77BB6803F04C
:104398001003002B20D0FB6803F01003002B1BD068
:1043A8007B681B686FF010021A617B6808221A7715
:1043B8007B681B68DB6903F44073002B03D07868C3
:1043C80000F03BF905E0786800F02DF9786800F016
:1043D8003EF97B6800221A77BB6803F00103002BC3
:1043E8000CD0FB6803F00103002B07D07B681B6827
:1043F8006FF001021A617868FCF780FEBB6803F071
:104408008003002B0CD0FB6803F08003002B07D03F
:104418007B681B686FF080021A61786800F006FB01
:10442800BB6803F48073002B0CD0FB6803F0800397
:10443800002B07D07B681B686FF480721A6178685C
:1044480000F0FEFABB6803F04003002B0CD0FB68B9
:1044580003F04003002B07D07B681B686FF0400215
:104468001A61786800F0FDF8BB6803F02003002BA0
:104478000CD0FB6803F02003002B07D07B681B6877
:104488006FF020021A61786800F0C6FA00BF103792
:10449800BD4680BD80B584B000AF78603960002328
:1044A800FB737B6893F83C30012B01D10223B6E003
:1044B8007B68012283F83C207B68022283F83D2038
:1044C8007B681B689B68BB60BB6823F4803323F060
:1044D8007703BB60BB6823F47F43BB607B681B68C2
:1044E800BA689A603B681B68B3F5005F3ED0B3F5C5
:1044F800005F00F28780B3F5805F00F08680B3F537
:10450800805F7FD8702B1AD0702B7BD8602B50D04F
:10451800602B77D8502B3CD0502B73D8402B58D0D9
:10452800402B6FD8302B64D0302B6BD8202B60D029
:10453800202B67D8002B5CD0102B5AD062E07B6808
:1045480018683B6899683B685A683B68DB6800F004
:10455800B7F97B681B689B68BB60BB6843F077034F
:10456800BB607B681B68BA689A604FE07B68186814
:104578003B6899683B685A683B68DB6800F0A0F9BB
:104588007B681B689A687B681B6842F480429A6063
:104598003CE07B6818683B6859683B68DB681A46EA
:1045A80000F014F97B681B685021184600F06DF97B
:1045B8002CE07B6818683B6859683B68DB681A46DA
:1045C80000F033F97B681B686021184600F05DF93C
:1045D8001CE07B6818683B6859683B68DB681A46CA
:1045E80000F0F4F87B681B684021184600F04DF98C
:1045F8000CE07B681A683B681B681946104600F097
:1046080044F903E00123FB7300E000BF7B6801224B
:1046180083F83D207B68002283F83C20FB7B18460A
:104628001037BD4680BD80B483B000AF786000BF4E
:104638000C37BD465DF8047B704780B483B000AF8B
:10464800786000BF0C37BD465DF8047B704780B4C6
:1046580083B000AF786000BF0C37BD465DF8047BBF
:10466800704780B483B000AF786000BF0C37BD4698
:104678005DF8047B7047000080B485B000AF7860B7
:1046880039607B681B68FB607B68484A934213D09B
:104698007B68B3F1804F0FD07B68454A93420BD0BB
:1046A8007B68444A934207D07B68434A934203D0CD
:1046B8007B68424A934208D1FB6823F07003FB6091
:1046C8003B685B68FA681343FB607B68374A934230
:1046D8001FD07B68B3F1804F1BD07B68344A93426C
:1046E80017D07B68334A934213D07B68324A93428F
:1046F8000FD07B68324A93420BD07B68314A934291
:1047080007D07B68304A934203D07B682B4A934298
:1047180008D1FB6823F44073FB603B68DB68FA68E8
:104728001343FB60FB6823F080023B685B6913431B
:10473800FB607B68FA681A603B689A687B68DA6293
:104748003B681A687B689A627B68184A934213D060
:104758007B68194A93420FD07B68194A93420BD061
:104768007B68184A934207D07B68174A934203D064
:104778007B68124A934203D13B681A697B681A63C3
:104788007B6801225A617B681B6903F00103012BD6
:1047980005D17B681B6923F001027B681A6100BFA1
:1047A8001437BD465DF8047B704700BF002C0140FC
:1047B800000400400008004000340140005001405F
:1047C80000400140004401400048014080B487B0E7
:1047D80000AFF860B9607A60FB681B6A7B61FB68B0
:1047E8001B6A23F00102FB681A62FB689B693B6144
:1047F8003B6923F0F0033B617B681B013A69134373
:104808003B617B6923F00A037B617A69BB681343C8
:104818007B61FB683A699A61FB687A691A6200BF32
:104828001C37BD465DF8047B704780B487B000AF85
:10483800F860B9607A60FB681B6A7B61FB681B6A79
:1048480023F01002FB681A62FB689B693B613B69B5
:1048580023F470433B617B681B033A6913433B6154
:104868007B6923F0A0037B61BB681B017A69134352
:104878007B61FB683A699A61FB687A691A6200BFD2
:104888001C37BD465DF8047B704780B485B000AF27
:10489800786039607B689B68FB60FB6823F0700375
:1048A800FB603A68FB68134343F00703FB607B68CF
:1048B800FA689A6000BF1437BD465DF8047B7047FC
:1048C80080B487B000AFF860B9607A603B60FB687D
:1048D8009B687B617B6923F47F437B613B681A0299
:1048E8007B681A43BB6813437A6913437B61FB688F
:1048F8007A699A6000BF1C37BD465DF8047B704733
:1049080080B485B000AF786039607B6893F83C303C
:10491800012B01D102236DE07B68012283F83C2042
:104928007B68022283F83D207B681B685B68FB601C
:104938007B681B689B68BB607B681B68304A934236
:1049480009D07B681B682F4A934204D07B681B6898
:104958002D4A934208D1FB6823F47003FB603B683F
:104968005B68FA681343FB60FB6823F07003FB6025
:104978003B681B68FA681343FB607B681B68FA682E
:104988005A607B681B681E4A93421DD07B681B686F
:10499800B3F1804F18D07B681B681C4A934213D030
:1049A8007B681B681A4A93420ED07B681B68154ABD
:1049B800934209D07B681B68164A934204D07B68EF
:1049C8001B68114A93420CD1BB6823F08003BB607B
:1049D8003B689B68BA681343BB607B681B68BA680E
:1049E8009A607B68012283F83D207B68002283F867
:1049F8003C20002318461437BD465DF8047B7047F9
:104A0800002C0140003401400050014000040040E7
:104A1800000800400040014080B483B000AF7860D7
:104A280000BF0C37BD465DF8047B704780B483B087
:104A380000AF786000BF0C37BD465DF8047B704757
:104A480080B483B000AF786000BF0C37BD465DF816
:104A5800047B704780B582B000AF78607B68002B1C
:104A680001D1012340E07B68DB6F002B06D17B6816
:104A7800002283F878207868FCF70AFE7B682422F5
:104A8800DA677B681B681A687B681B6822F001027A
:104A98001A607B685B6A002B02D0786800F098FE89
:104AA800786800F0C1FC0346012B01D101231BE00B
:104AB8007B681B685A687B681B6822F490425A60BE
:104AC8007B681B689A687B681B6822F02A029A60D8
:104AD8007B681B681A687B681B6842F001021A60D1
:104AE800786800F017FF034618460837BD4680BDB2
:104AF80080B58AB002AFF860B9603B601346FB80AE
:104B0800FB68DB6F202B77D1BB68002B02D0FB88BA
:104B1800002B01D1012370E0FB680022C3F8842038
:104B2800FB682122DA67FCF7D7FE7861FB68FA8810
:104B3800A3F85020FB68FA88A3F85220FB689B680A
:104B4800B3F5805F08D1FB681B69002B04D10023F3
:104B5800FB61BB68BB6103E0BB68FB610023BB6111
:104B68002FE03B6800937B6900228021F86800F001
:104B780079FF0346002B04D0FB682022DA67032361
:104B88003BE0FB69002B0BD1BB691A88FB681B68EB
:104B9800C2F3080292B21A85BB690233BB6107E00F
:104BA800FB691A78FB681B681A85FB690133FB618E
:104BB800FB68B3F852309BB2013B9AB2FB68A3F88A
:104BC8005220FB68B3F852309BB2002BC9D13B6826
:104BD80000937B6900224021F86800F043FF0346F8
:104BE800002B04D0FB682022DA67032305E0FB686A
:104BF8002022DA67002300E0022318462037BD464A
:104C080080BD80B58AB002AFF860B9603B601346DA
:104C1800FB80FB68D3F88030202B40F0B680BB685F
:104C2800002B02D0FB88002B01D10123AEE0FB68EA
:104C38000022C3F88420FB682222C3F88020FB6886
:104C480000221A66FCF748FE7861FB68FA88A3F828
:104C58005820FB68FA88A3F85A20FB689B68B3F5CC
:104C6800805F0ED1FB681B69002B05D1FB6840F201
:104C7800FF12A3F85C202DE0FB68FF22A3F85C205C
:104C880028E0FB689B68002B0DD1FB681B69002B93
:104C980004D1FB68FF22A3F85C201BE0FB687F229D
:104CA800A3F85C2016E0FB689B68B3F1805F0DD128
:104CB800FB681B69002B04D1FB687F22A3F85C20EA
:104CC80008E0FB683F22A3F85C2003E0FB680022B1
:104CD800A3F85C20FB68B3F85C307B82FB689B68B8
:104CE800B3F5805F08D1FB681B69002B04D1002352
:104CF800FB61BB68BB6103E0BB68FB610023BB6170
:104D080037E03B6800937B6900222021F86800F0B7
:104D1800A9FE0346002B05D0FB682022C3F880209B
:104D2800032333E0FB69002B0CD1FB681B689B8CC9
:104D38009AB27B8A13409AB2BB691A80BB69023364
:104D4800BB610DE0FB681B689B8C9BB2DAB27B8A67
:104D5800DBB21340DAB2FB691A70FB690133FB61FD
:104D6800FB68B3F85A309BB2013B9AB2FB68A3F8D0
:104D78005A20FB68B3F85A309BB2002BC1D1FB68AC
:104D88002022C3F88020002300E0022318462037A1
:104D9800BD4680BD80B58AB000AFF860B9601346E3
:104DA800FB80FB68D3F88030202B32D1BB68002B06
:104DB80002D0FB88002B01D101232BE0FB680022E5
:104DC8001A66FB681B685B6803F40003002B18D0A5
:104DD800FB681B687B617B6953E8003F3B613B696B
:104DE80043F080637B62FB681B681A467B6A3B6200
:104DF800FA61F9693A6A41E80023BB61BB69002B93
:104E0800E6D1FB881A46B968F86800F099FE0346AF
:104E180000E0022318462837BD4680BD80B5BAB0E9
:104E280000AF78607B681B68DB69C7F8E4307B6893
:104E38001B681B68C7F8E0307B681B689B68C7F86D
:104E4800DC30D7F8E42040F60F031340C7F8D83019
:104E5800D7F8D830002B15D1D7F8E43003F0200369
:104E6800002B0FD0D7F8E03003F02003002B09D037
:104E78007B689B6E002B00F0AB827B689B6E78682A
:104E88009847A5E2D7F8D830002B00F01781D7F85B
:104E9800DC3003F00103002B06D1D7F8E020854B66
:104EA8001340002B00F00A81D7F8E43003F0010327
:104EB800002B11D0D7F8E03003F48073002B0BD00F
:104EC8007B681B6801221A627B68D3F8843043F040
:104ED80001027B68C3F88420D7F8E43003F00203AA
:104EE800002B11D0D7F8DC3003F00103002B0BD0D6
:104EF8007B681B6802221A627B68D3F8843043F00F
:104F080004027B68C3F88420D7F8E43003F0040374
:104F1800002B11D0D7F8DC3003F00103002B0BD0A5
:104F28007B681B6804221A627B68D3F8843043F0DC
:104F380002027B68C3F88420D7F8E43003F0080342
:104F4800002B17D0D7F8E03003F02003002B05D151
:104F5800D7F8DC3003F00103002B0BD07B681B680B
:104F680008221A627B68D3F8843043F008027B6811
:104F7800C3F88420D7F8E43003F40063002B12D080
:104F8800D7F8E03003F08063002B0CD07B681B68F7
:104F98004FF400621A627B68D3F8843043F0200231
:104FA8007B68C3F884207B68D3F88430002B00F03A
:104FB8001182D7F8E43003F02003002B0DD0D7F886
:104FC800E03003F02003002B07D07B689B6E002B9A
:104FD80003D07B689B6E786898477B68D3F88430E9
:104FE800C7F8D4307B681B689B6803F04003402BEC
:104FF80005D0D7F8D43003F02803002B4FD07868B9
:1050080000F064FE7B681B689B6803F04003402B3C
:1050180041D17B681B680833C7F89C30D7F89C30AF
:1050280053E8003FC7F89830D7F8983023F040038A
:10503800C7F8D0307B681B680833D7F8D020C7F88A
:10504800A820C7F8A430D7F8A410D7F8A82041E8BA
:105058000023C7F8A030D7F8A030002BD9D17B683F
:105068005B6F002B13D07B685B6F134A5A637B68B6
:105078005B6F1846FCF78EFE0346002B17D07B6843
:105088005B6F5B6B7A68526F104698470FE07868E1
:1050980000F0B4F90BE0786800F0B0F907E0786840
:1050A80000F0ACF97B680022C3F8842092E100BFCD
:1050B80090E100BF200100049D5D00087B681B6E25
:1050C800012B40F04B81D7F8E43003F01003002B9C
:1050D80000F04481D7F8E03003F01003002B00F013
:1050E8003D817B681B6810221A627B681B689B687D
:1050F80003F04003402B40F0B5807B685B6F1B6872
:105108005B68A7F8BE30B7F8BE30002B00F06481AA
:105118007B68B3F85830B7F8BE209A4280F05C81BB
:105128007B68B7F8BE20A3F85A207B685B6F9B6941
:10513800202B00F086807B681B68C7F88830D7F87A
:10514800883053E8003FC7F88430D7F8843023F418
:105158008073C7F8B8307B681B681A46D7F8B83030
:10516800C7F89430C7F89020D7F89010D7F8942053
:1051780041E80023C7F88C30D7F88C30002BDAD1FF
:105188007B681B6808337B677B6F53E8003F3B678E
:105198003B6F23F00103C7F8B4307B681B68083302
:1051A800D7F8B420C7F88020FB67F96FD7F88020BC
:1051B80041E80023BB67BB6F002BE1D17B681B680C
:1051C80008333B663B6E53E8003FFB65FB6D23F0FD
:1051D8004003C7F8B0307B681B680833D7F8B020A5
:1051E800FA66BB66B96EFA6E41E800237B667B6E91
:1051F800002BE3D17B682022C3F880207B68002243
:105208001A667B681B68FB64FB6C53E8003FBB6451
:10521800BB6C23F01003C7F8AC307B681B681A46D8
:10522800D7F8AC30BB657A65796DBA6D41E8002373
:105238003B653B6D002BE4D17B685B6F1846FCF740
:105248006BFD7B6802225A667B68B3F858207B683E
:10525800B3F85A309BB2D31A9BB21946786800F05B
:10526800D7F8B9E07B68B3F858207B68B3F85A30B0
:105278009BB2D31AA7F8CE307B68B3F85A309BB2EA
:10528800002B00F0AB80B7F8CE30002B00F0A680E2
:105298007B681B68BB63BB6B53E8003F7B637B6B1E
:1052A80023F49073C7F8C8307B681B681A46D7F890
:1052B800C8307B643A64396C7A6C41E80023FB633C
:1052C800FB6B002BE4D17B681B6808337B627B6A2D
:1052D80053E8003F3B623B6A23F00103C7F8C43040
:1052E8007B681B680833D7F8C4203A63FB62F96A05
:1052F8003A6B41E80023BB62BB6A002BE3D17B68B1
:105308002022C3F880207B6800221A667B6800226E
:105318009A667B681B683B613B6953E8003FFB600A
:10532800FB6823F01003C7F8C0307B681B681A4677
:10533800D7F8C030FB61BA61B969FA6941E800235E
:105348007B617B69002BE4D17B6802225A66B7F83F
:10535800CE301946786800F05BF83FE0D7F8E430C3
:1053680003F48013002B0ED0D7F8DC3003F480034D
:10537800002B08D07B681B684FF480121A6278688B
:1053880000F0F0FE2DE0D7F8E43003F08003002BA6
:105398000ED0D7F8E03003F08003002B08D07B68EC
:1053A800DB6E002B1CD07B68DB6E7868984717E0B3
:1053B800D7F8E43003F04003002B12D0D7F8E030E0
:1053C80003F04003002B0CD0786800F0F9FC08E0EB
:1053D80000BF06E000BF04E000BF02E000BF00E03D
:1053E80000BFE837BD4680BD80B483B000AF7860A9
:1053F80000BF0C37BD465DF8047B704780B483B0AE
:1054080000AF786000BF0C37BD465DF8047B70477D
:1054180080B483B000AF78600B467B8000BF0C3748
:10542800BD465DF8047B704780B588B000AF7860F2
:105438000023BB777B689A687B681B691A437B6883
:105448005B691A437B68DB6913437B617B681B6874
:105458001A68924B13407A68126879690B43136093
:105468007B681B685B6823F440517B68DA687B685B
:105478001B680A435A607B689B697B617B681B6A6F
:105488007A6913437B617B681B689B6823F43061EE
:105498007B681B687A690A439A607B681B68804A44
:1054A800934220D17F4B1B6B03F00303032B17D8C8
:1054B80001A252F823F000BFD1540008DD540008BF
:1054C800E3540008D75400080123FB77B5E0022312
:1054D800FB77B2E00423FB77AFE00823FB77ACE06F
:1054E8001023FB77A9E07B681B686F4A934224D19D
:1054F8006C4B1B6B03F44033B3F5403F11D0B3F54D
:10550800403F17D8B3F5003F11D0B3F5003F11D88D
:10551800002B03D0B3F5803F06D00BE00023FB77C8
:105528008BE00223FB7788E00423FB7785E00823E0
:10553800FB7782E01023FB777FE07B681B685B4A80
:10554800934224D1574B1B6B03F44023B3F5402FF0
:1055580011D0B3F5402F17D8B3F5002F11D0B3F5FC
:10556800002F11D8002B03D0B3F5802F06D00BE005
:105578000023FB7761E00223FB775EE00423FB77DF
:105588005BE00823FB7758E01023FB7755E07B6846
:105598001B68474A934224D1424B1B6B03F44013C8
:1055A800B3F5401F11D0B3F5401F17D8B3F5001F4E
:1055B80011D0B3F5001F11D8002B03D0B3F5801F0D
:1055C80006D00BE00023FB7737E00223FB7734E0BB
:1055D8000423FB7731E00823FB772EE01023FB77C9
:1055E8002BE07B681B68334A934224D12D4B1B6BFD
:1055F80003F44003B3F5400F11D0B3F5400F17D8AB
:10560800B3F5000F11D0B3F5000F11D8002B03D05C
:10561800B3F5800F06D00BE00023FB770DE00223E3
:10562800FB770AE00423FB7707E00823FB7704E015
:105638001023FB7701E01023FB777B68DB69B3F568
:10564800004F6BD1FB7F082B38D801A252F823F00A
:105658007D560008855600088D560008C556000876
:1056680093560008C5560008C5560008C5560008D8
:105678009B560008FDF760FFB86124E0FDF77EFF48
:10568800B86120E00C4BBB611DE0FDF7F5FEB86189
:1056980019E04FF40043BB6115E000BFF369FFEF69
:1056A800003801400010024000440040004800401B
:1056B800004C00400050004000127A000023BB61FB
:1056C8000123BB7700BFBB69002B73D0BB695A00AD
:1056D8007B685B685B081A447B685B68B2FBF3F322
:1056E8003B613B690F2B16D93B69B3F5803F12D25A
:1056F8003B699BB223F00F03FB813B695B089BB2BC
:1057080003F007039AB2FB891343FB817B681B688C
:10571800FA89DA604EE00123BB774BE0FB7F082B68
:1057280027D801A252F823F0555700085D57000802
:10573800655700087B5700086B5700087B5700081F
:105748007B5700087B57000873570008FDF7F4FEE5
:10575800B86113E0FDF712FFB8610FE01B4BBB61A6
:105768000CE0FDF789FEB86108E04FF40043BB6127
:1057780004E00023BB610123BB7700BFBB69002B9A
:1057880018D07B685B685A08BB691A447B685B68F9
:10579800B2FBF3F33B613B690F2B09D93B69B3F5C6
:1057A800803F05D23B699AB27B681B68DA6001E0EA
:1057B8000123BB777B6800229A667B680022DA6641
:1057C800BB7F18462037BD4680BD00BF00127A0057
:1057D80080B483B000AF78607B685B6A03F008032D
:1057E800002B0AD07B681B685B6823F400417B6848
:1057F8005A6B7B681B680A435A607B685B6A03F0D4
:105808000103002B0AD07B681B685B6823F4003116
:105818007B689A6A7B681B680A435A607B685B6A84
:1058280003F00203002B0AD07B681B685B6823F433
:1058380080317B68DA6A7B681B680A435A607B6838
:105848005B6A03F00403002B0AD07B681B685B6863
:1058580023F480217B681A6B7B681B680A435A60B3
:105868007B685B6A03F01003002B0AD07B681B6817
:105878009B6823F480517B689A6B7B681B680A439A
:105888009A607B685B6A03F02003002B0AD07B6870
:105898001B689B6823F400517B68DA6B7B681B6884
:1058A8000A439A607B685B6A03F04003002B1AD0B6
:1058B8007B681B685B6823F480117B681A6C7B68C3
:1058C8001B680A435A607B681B6CB3F5801F0AD1BA
:1058D8007B681B685B6823F4C0017B685A6C7B6833
:1058E8001B680A435A607B685B6A03F08003002BDD
:1058F8000AD07B681B685B6823F400217B689A6C7C
:105908007B681B680A435A6000BF0C37BD465DF8C8
:10591800047B704780B598B002AF78607B6800223E
:10592800C3F88420FBF7D8FF78657B681B681B6881
:1059380003F00803082B2ED16FF07E4300937B6D94
:1059480000224FF40011786800F08CF80346002B11
:1059580021D07B681B68BB63BB6B53E8003F7B634C
:105968007B6B23F080033B657B681B681A463B6DA5
:105978007B643A64396C7A6C41E80023FB63FB6B07
:10598800002BE6D17B682022DA677B68002283F847
:105998007820032362E07B681B681B6803F004031C
:1059A800042B49D16FF07E4300937B6D00224FF4A6
:1059B8008001786800F056F80346002B3CD07B68DD
:1059C8001B687B627B6A53E8003F3B623B6A23F4B7
:1059D8009073FB647B681B681A46FB6C3B63FA6236
:1059E800F96A3A6B41E80023BB62BB6A002BE6D137
:1059F8007B681B6808333B613B6953E8003FFB60E9
:105A0800FB6823F00103BB647B681B680833BA6C2E
:105A1800FA61BB61B969FA6941E800237B617B6976
:105A2800002BE5D17B682022C3F880207B68002208
:105A380083F87820032311E07B682022DA677B68EB
:105A48002022C3F880207B6800221A667B68002227
:105A58005A667B68002283F8782000231846583756
:105A6800BD4680BD80B584B000AFF860B9603B60CA
:105A78001346FB714FE0BB69B3F1FF3F4BD0FBF717
:105A88002BFF02463B68D31ABA699A4202D3BB6914
:105A9800002B01D103234EE0FB681B681B6803F051
:105AA8000403002B37D0BB68802B34D0BB68402B55
:105AB80031D0FB681B68DB6903F00803082B10D1A1
:105AC800FB681B6808221A62F86800F0FFF8FB6898
